{
  "contractName": "DappToken",
  "abi": [
    {
      "constant": true,
      "inputs": [],
      "name": "name",
      "outputs": [
        {
          "name": "",
          "type": "string"
        }
      ],
      "payable": false,
      "stateMutability": "view",
      "type": "function"
    },
    {
      "constant": true,
      "inputs": [],
      "name": "totalSupply",
      "outputs": [
        {
          "name": "",
          "type": "uint256"
        }
      ],
      "payable": false,
      "stateMutability": "view",
      "type": "function"
    },
    {
      "constant": true,
      "inputs": [],
      "name": "standard",
      "outputs": [
        {
          "name": "",
          "type": "string"
        }
      ],
      "payable": false,
      "stateMutability": "view",
      "type": "function"
    },
    {
      "constant": true,
      "inputs": [
        {
          "name": "",
          "type": "address"
        }
      ],
      "name": "balanceOf",
      "outputs": [
        {
          "name": "",
          "type": "uint256"
        }
      ],
      "payable": false,
      "stateMutability": "view",
      "type": "function"
    },
    {
      "constant": true,
      "inputs": [],
      "name": "owner",
      "outputs": [
        {
          "name": "",
          "type": "address"
        }
      ],
      "payable": false,
      "stateMutability": "view",
      "type": "function"
    },
    {
      "constant": true,
      "inputs": [],
      "name": "symbol",
      "outputs": [
        {
          "name": "",
          "type": "string"
        }
      ],
      "payable": false,
      "stateMutability": "view",
      "type": "function"
    },
    {
      "constant": true,
      "inputs": [
        {
          "name": "",
          "type": "address"
        },
        {
          "name": "",
          "type": "address"
        }
      ],
      "name": "allowance",
      "outputs": [
        {
          "name": "",
          "type": "uint256"
        }
      ],
      "payable": false,
      "stateMutability": "view",
      "type": "function"
    },
    {
      "inputs": [
        {
          "name": "_initialSupply",
          "type": "uint256"
        }
      ],
      "payable": false,
      "stateMutability": "nonpayable",
      "type": "constructor"
    },
    {
      "anonymous": false,
      "inputs": [
        {
          "indexed": true,
          "name": "_from",
          "type": "address"
        },
        {
          "indexed": true,
          "name": "_to",
          "type": "address"
        },
        {
          "indexed": false,
          "name": "_value",
          "type": "uint256"
        }
      ],
      "name": "Transfer",
      "type": "event"
    },
    {
      "anonymous": false,
      "inputs": [
        {
          "indexed": true,
          "name": "_owner",
          "type": "address"
        },
        {
          "indexed": true,
          "name": "_spender",
          "type": "address"
        },
        {
          "indexed": false,
          "name": "_value",
          "type": "uint256"
        }
      ],
      "name": "Approval",
      "type": "event"
    },
    {
      "constant": false,
      "inputs": [
        {
          "name": "_to",
          "type": "address"
        },
        {
          "name": "_value",
          "type": "uint256"
        }
      ],
      "name": "transfer",
      "outputs": [
        {
          "name": "success",
          "type": "bool"
        }
      ],
      "payable": false,
      "stateMutability": "nonpayable",
      "type": "function"
    },
    {
      "constant": false,
      "inputs": [
        {
          "name": "_spender",
          "type": "address"
        },
        {
          "name": "_value",
          "type": "uint256"
        }
      ],
      "name": "approve",
      "outputs": [
        {
          "name": "success",
          "type": "bool"
        }
      ],
      "payable": false,
      "stateMutability": "nonpayable",
      "type": "function"
    },
    {
      "constant": false,
      "inputs": [
        {
          "name": "_from",
          "type": "address"
        },
        {
          "name": "_to",
          "type": "address"
        },
        {
          "name": "_value",
          "type": "uint256"
        }
      ],
      "name": "transferFrom",
      "outputs": [
        {
          "name": "success",
          "type": "bool"
        }
      ],
      "payable": false,
      "stateMutability": "nonpayable",
      "type": "function"
    }
  ],
  "bytecode": "0x60806040526040805190810160405280600a81526020017f4441707020546f6b656e000000000000000000000000000000000000000000008152506000908051906020019062000051929190620001ea565b506040805190810160405280600481526020017f4441505000000000000000000000000000000000000000000000000000000000815250600190805190602001906200009f929190620001ea565b506040805190810160405280600f81526020017f4441707020546f6b656e2076312e30000000000000000000000000000000000081525060029080519060200190620000ed929190620001ea565b50620124f86003553480156200010257600080fd5b50604051602080620010b5833981018060405260208110156200012457600080fd5b810190808051906020019092919050505033600460006101000a81548173ffffffffffffffffffffffffffffffffffffffff021916908373ffffffffffffffffffffffffffffffffffffffff1602179055508060056000600460009054906101000a900473ffffffffffffffffffffffffffffffffffffffff1673ffffffffffffffffffffffffffffffffffffffff1673ffffffffffffffffffffffffffffffffffffffff16815260200190815260200160002081905550806003819055505062000299565b828054600181600116156101000203166002900490600052602060002090601f016020900481019282601f106200022d57805160ff19168380011785556200025e565b828001600101855582156200025e579182015b828111156200025d57825182559160200191906001019062000240565b5b5090506200026d919062000271565b5090565b6200029691905b808211156200029257600081600090555060010162000278565b5090565b90565b610e0c80620002a96000396000f3fe6080604052600436106100a4576000357c0100000000000000000000000000000000000000000000000000000000900463ffffffff16806306fdde03146100a9578063095ea7b31461013957806318160ddd146101ac57806323b872dd146101d75780635a3b7e421461026a57806370a08231146102fa5780638da5cb5b1461035f57806395d89b41146103b6578063a9059cbb14610446578063dd62ed3e146104b9575b600080fd5b3480156100b557600080fd5b506100be61053e565b6040518080602001828103825283818151815260200191508051906020019080838360005b838110156100fe5780820151818401526020810190506100e3565b50505050905090810190601f16801561012b5780820380516001836020036101000a031916815260200191505b509250505060405180910390f35b34801561014557600080fd5b506101926004803603604081101561015c57600080fd5b81019080803573ffffffffffffffffffffffffffffffffffffffff169060200190929190803590602001909291905050506105dc565b604051808215151515815260200191505060405180910390f35b3480156101b857600080fd5b506101c16106ce565b6040518082815260200191505060405180910390f35b3480156101e357600080fd5b50610250600480360360608110156101fa57600080fd5b81019080803573ffffffffffffffffffffffffffffffffffffffff169060200190929190803573ffffffffffffffffffffffffffffffffffffffff169060200190929190803590602001909291905050506106d4565b604051808215151515815260200191505060405180910390f35b34801561027657600080fd5b5061027f610a3b565b6040518080602001828103825283818151815260200191508051906020019080838360005b838110156102bf5780820151818401526020810190506102a4565b50505050905090810190601f1680156102ec5780820380516001836020036101000a031916815260200191505b509250505060405180910390f35b34801561030657600080fd5b506103496004803603602081101561031d57600080fd5b81019080803573ffffffffffffffffffffffffffffffffffffffff169060200190929190505050610ad9565b6040518082815260200191505060405180910390f35b34801561036b57600080fd5b50610374610af1565b604051808273ffffffffffffffffffffffffffffffffffffffff1673ffffffffffffffffffffffffffffffffffffffff16815260200191505060405180910390f35b3480156103c257600080fd5b506103cb610b17565b6040518080602001828103825283818151815260200191508051906020019080838360005b8381101561040b5780820151818401526020810190506103f0565b50505050905090810190601f1680156104385780820380516001836020036101000a031916815260200191505b509250505060405180910390f35b34801561045257600080fd5b5061049f6004803603604081101561046957600080fd5b81019080803573ffffffffffffffffffffffffffffffffffffffff16906020019092919080359060200190929190505050610bb5565b604051808215151515815260200191505060405180910390f35b3480156104c557600080fd5b50610528600480360360408110156104dc57600080fd5b81019080803573ffffffffffffffffffffffffffffffffffffffff169060200190929190803573ffffffffffffffffffffffffffffffffffffffff169060200190929190505050610dbb565b6040518082815260200191505060405180910390f35b60008054600181600116156101000203166002900480601f0160208091040260200160405190810160405280929190818152602001828054600181600116156101000203166002900480156105d45780601f106105a9576101008083540402835291602001916105d4565b820191906000526020600020905b8154815290600101906020018083116105b757829003601f168201915b505050505081565b600081600660003373ffffffffffffffffffffffffffffffffffffffff1673ffffffffffffffffffffffffffffffffffffffff16815260200190815260200160002060008573ffffffffffffffffffffffffffffffffffffffff1673ffffffffffffffffffffffffffffffffffffffff168152602001908152602001600020819055508273ffffffffffffffffffffffffffffffffffffffff163373ffffffffffffffffffffffffffffffffffffffff167f8c5be1e5ebec7d5bd14f71427d1e84f3dd0314c0f7b2291e5b200ac8c7c3b925846040518082815260200191505060405180910390a36001905092915050565b60035481565b6000600560008573ffffffffffffffffffffffffffffffffffffffff1673ffffffffffffffffffffffffffffffffffffffff16815260200190815260200160002054821115151561078d576040517f08c379a00000000000000000000000000000000000000000000000000000000081526004018080602001828103825260208152602001807f416d6f756e742073686f756c64206e6f74206578636565642062616c616e636581525060200191505060405180910390fd5b600660008573ffffffffffffffffffffffffffffffffffffffff1673ffffffffffffffffffffffffffffffffffffffff16815260200190815260200160002060003373ffffffffffffffffffffffffffffffffffffffff1673ffffffffffffffffffffffffffffffffffffffff1681526020019081526020016000205482111515156108a7576040517f08c379a00000000000000000000000000000000000000000000000000000000081526004018080602001828103825260228152602001807f416d6f756e742073686f756c64206e6f742065786365656420616c6c6f77616e81526020017f636500000000000000000000000000000000000000000000000000000000000081525060400191505060405180910390fd5b81600560008673ffffffffffffffffffffffffffffffffffffffff1673ffffffffffffffffffffffffffffffffffffffff1681526020019081526020016000206000828254039250508190555081600560008573ffffffffffffffffffffffffffffffffffffffff1673ffffffffffffffffffffffffffffffffffffffff1681526020019081526020016000206000828254019250508190555081600660008673ffffffffffffffffffffffffffffffffffffffff1673ffffffffffffffffffffffffffffffffffffffff16815260200190815260200160002060003373ffffffffffffffffffffffffffffffffffffffff1673ffffffffffffffffffffffffffffffffffffffff168152602001908152602001600020600082825403925050819055508273ffffffffffffffffffffffffffffffffffffffff168473ffffffffffffffffffffffffffffffffffffffff167fddf252ad1be2c89b69c2b068fc378daa952ba7f163c4a11628f55a4df523b3ef846040518082815260200191505060405180910390a3600190509392505050565b60028054600181600116156101000203166002900480601f016020809104026020016040519081016040528092919081815260200182805460018160011615610100020316600290048015610ad15780601f10610aa657610100808354040283529160200191610ad1565b820191906000526020600020905b815481529060010190602001808311610ab457829003601f168201915b505050505081565b60056020528060005260406000206000915090505481565b600460009054906101000a900473ffffffffffffffffffffffffffffffffffffffff1681565b60018054600181600116156101000203166002900480601f016020809104026020016040519081016040528092919081815260200182805460018160011615610100020316600290048015610bad5780601f10610b8257610100808354040283529160200191610bad565b820191906000526020600020905b815481529060010190602001808311610b9057829003601f168201915b505050505081565b60008160056000600460009054906101000a900473ffffffffffffffffffffffffffffffffffffffff1673ffffffffffffffffffffffffffffffffffffffff1673ffffffffffffffffffffffffffffffffffffffff1681526020019081526020016000205410151515610c90576040517f08c379a000000000000000000000000000000000000000000000000000000000815260040180806020018281038252601b8152602001807f496e73756666696369656e742073656e6465722062616c616e6365000000000081525060200191505060405180910390fd5b8160056000600460009054906101000a900473ffffffffffffffffffffffffffffffffffffffff1673ffffffffffffffffffffffffffffffffffffffff1673ffffffffffffffffffffffffffffffffffffffff1681526020019081526020016000206000828254039250508190555081600560008573ffffffffffffffffffffffffffffffffffffffff1673ffffffffffffffffffffffffffffffffffffffff168152602001908152602001600020600082825401925050819055508273ffffffffffffffffffffffffffffffffffffffff163373ffffffffffffffffffffffffffffffffffffffff167fddf252ad1be2c89b69c2b068fc378daa952ba7f163c4a11628f55a4df523b3ef846040518082815260200191505060405180910390a36001905092915050565b600660205281600052604060002060205280600052604060002060009150915050548156fea165627a7a7230582010e72e2b3a70c7918474ed7680b89003f4690d1bef36aa55848d375d45ec9cf90029",
  "source": "//  **** pragma solidity ^0.4.24;\r\n\r\n// contract DappToken {\r\n//     string  public name = \"DApp Token\";\r\n//     string  public symbol = \"DAPP\";\r\n//     string  public standard = \"DApp Token v1.0\";\r\n//     uint256 public totalSupply;\r\n\r\n//     event Transfer(\r\n//         address indexed _from,\r\n//         address indexed _to,\r\n//         uint256 _value\r\n//     );\r\n\r\n//     event Approval(\r\n//         address indexed _owner,\r\n//         address indexed _spender,\r\n//         uint256 _value\r\n//     );\r\n\r\n//     mapping(address => uint256) public balanceOf;\r\n//     mapping(address => mapping(address => uint256)) public allowance;\r\n\r\n//     function DappToken (uint256 _initialSupply) public {\r\n//         balanceOf[msg.sender] = _initialSupply;\r\n//         totalSupply = _initialSupply;\r\n//     }\r\n\r\n//     function transfer(address _to, uint256 _value) public returns (bool success) {\r\n//         require(balanceOf[msg.sender] >= _value);\r\n\r\n//         balanceOf[msg.sender] -= _value;\r\n//         balanceOf[_to] += _value;\r\n\r\n//         Transfer(msg.sender, _to, _value);\r\n\r\n//         return true;\r\n//     }\r\n\r\n//     function approve(address _spender, uint256 _value) public returns (bool success) {\r\n//         allowance[msg.sender][_spender] = _value;\r\n\r\n//         Approval(msg.sender, _spender, _value);\r\n\r\n//         return true;\r\n//     }\r\n\r\n//     function transferFrom(address _from, address _to, uint256 _value) public returns (bool success) {\r\n//         require(_value <= balanceOf[_from]);\r\n//         require(_value <= allowance[_from][msg.sender]);\r\n\r\n//         balanceOf[_from] -= _value;\r\n//         balanceOf[_to] += _value;\r\n\r\n//         allowance[_from][msg.sender] -= _value;\r\n\r\n//         Transfer(_from, _to, _value);\r\n\r\n//         return true;\r\n//     }\r\n// }\r\n\r\n// pragma solidity ^0.5.0;\r\n\r\n// /**\r\n//  * The contractName contract does this and that...\r\n//  */\r\n// contract DappToken {\r\n\r\n// \t//Name\r\n// \tstring public name = \"DApp Token\";\r\n// \t//Symbol\r\n// \tstring public symbol = \"DAT\";\r\n// \tstring public standard = \"DApp Token v0.1\";\r\n\r\n// \tuint256 public totalSupply;\r\n\r\n// \tevent Transfer(\r\n// \t\taddress indexed _from,\r\n// \t\taddress indexed _to,\r\n// \t\tuint256 _value\r\n// \t);\r\n\r\n// \tevent Approval(\r\n// \t\taddress indexed _owner,\r\n// \t\taddress indexed _spender,\r\n// \t    uint256 _value\r\n// \t);\r\n\t\r\n\r\n// \tmapping(address => uint256) public balanceOf;\r\n// \tmapping (address => mapping(address => uint)) public allowance;\r\n\t\r\n\r\n// \tconstructor(uint256 _initialSupply) public {\r\n// \t\tbalanceOf[msg.sender] = _initialSupply;\r\n// \t\ttotalSupply = _initialSupply;\r\n// \t}\r\n\r\n// \t// Transfer\r\n// \tfunction transfer(address _to, uint256 _value) public returns (bool success){\r\n\r\n// \t\trequire (balanceOf[msg.sender] >= _value);\r\n\t\t\r\n// \t\t// Transfer the balance\r\n// \t\tbalanceOf[msg.sender] -= _value;\r\n// \t\tbalanceOf[_to] += _value;\r\n\r\n// \t\temit Transfer(msg.sender, _to, _value);\r\n\r\n// \t\treturn true;\r\n// \t}\r\n\r\n// \t// approve\r\n// \tfunction approve(address _spender, uint256 _value) public returns (bool success){\r\n\t\t\r\n// \t\t// allowance\r\n// \t\tallowance[msg.sender][_spender] = _value;\r\n\r\n// \t\t// approval event\r\n// \t\temit Approval(msg.sender, _spender, _value);\r\n\t\t\r\n// \t\treturn true;\r\n// \t}\r\n\r\n// \tfunction transferFrom(address _from, address _to, uint256 _value) public returns (bool success){\r\n\t\t\r\n// \t\trequire (_value <= balanceOf[_from]);\r\n// \t\trequire (_value <= allowance[_from][msg.sender]);\r\n\r\n// \t\t// change the balance\r\n// \t\tbalanceOf[_from] -= _value;\r\n// \t\tbalanceOf[_to] += _value;\r\n\t\t\r\n// \t\t// update the allowance\r\n// \t\tallowance[_from][msg.sender] -= _value;\r\n\t\t\r\n// \t\t// Transfer event\r\n// \t\temit Transfer(_from, _to, _value);\r\n\r\n// \t\t// return a bool value\r\n// \t\treturn true;\r\n// \t}\r\n  \r\n// }\r\n\r\npragma solidity ^0.5.0;\r\ncontract DappToken {\r\n    string  public name = \"DApp Token\";\r\n    string  public symbol = \"DAPP\";\r\n    string  public standard = \"DApp Token v1.0\";\r\n    uint256 public totalSupply = 75000;\r\n    address public owner;\r\n\r\n    event Transfer(\r\n        address indexed _from,\r\n        address indexed _to,\r\n        uint256 _value\r\n    );\r\n    event Approval(\r\n        address indexed _owner,\r\n        address indexed _spender,\r\n        uint256 _value\r\n    );\r\n    mapping(address => uint256) public balanceOf;\r\n    mapping(address => mapping(address => uint256)) public allowance;\r\n\r\n    constructor (uint256 _initialSupply) public {\r\n        owner = msg.sender;\r\n        balanceOf[owner] = _initialSupply;\r\n        totalSupply = _initialSupply;\r\n    }\r\n    function transfer(address _to, uint256 _value) public returns (bool success) {\r\n        require(balanceOf[owner] >= _value, \"Insufficient sender balance\");\r\n         balanceOf[owner] -= _value;\r\n        balanceOf[_to] += _value;\r\n\r\n        emit Transfer(msg.sender, _to, _value);\r\n        return true;\r\n    }\r\n\r\n    function approve(address _spender, uint256 _value) public returns (bool success) {\r\n        allowance[msg.sender][_spender] = _value;\r\n        emit Approval(msg.sender, _spender, _value);\r\n        return true;\r\n    }\r\n\r\n    function transferFrom(address _from, address _to, uint256 _value) public returns (bool success) {\r\n        require(_value <= balanceOf[_from], 'Amount should not exceed balance');\r\n        require(_value <= allowance[_from][msg.sender], 'Amount should not exceed allowance');\r\n        balanceOf[_from] -= _value;\r\n        balanceOf[_to] += _value;\r\n        allowance[_from][msg.sender] -= _value;\r\n        emit Transfer(_from, _to, _value);\r\n        return true;\r\n    }\r\n}\r\n\r\n",
  "sourcePath": "D:\\token_sale\\contracts\\DappToken.sol",
  "compiler": {
    "name": "solc",
    "version": "0.5.0+commit.1d4f565a.Emscripten.clang"
  },
  "schemaVersion": "3.4.10",
  "updatedAt": "2022-10-07T04:30:50.564Z",
  "networkType": "ethereum",
  "devdoc": {
    "methods": {}
  },
  "userdoc": {
    "methods": {}
  }
}